:03000000020533C3
:0C053300787FE4F6D8FD75812702057A78
:10062A0010083F065B4F666D7D077F6F777C395EEA
:02063A007971D4
:10000300E4900048F090004AF0A3F0A3F0A3F0902E
:100013000048F0900048E0FFC39408748094805037
:1000230018EF75F009A42400F582E43400F583E4A5
:10003300F0900048E004F080DA12066212065BE4F6
:10004300900048F0E490004AF090004CF090004A91
:10005300E07041900048E075F009A42400F97400B1
:1000630035F0FA7B0190004DE0FD1202A4E490000C
:100073004BF090004BE0FFC394047480948050CD08
:1000830090004AE070C71205BF90004AEFF0A3E06A
:1000930004F080DE90004AE01425E025E0FFA3E0B1
:1000A3002FFFA3F07E006404703B900048E060944F
:1000B30014F0E490004DF090004DE0FD900048E016
:1000C30075F009A42400F582E43400F583E5822D5C
:1000D300F582E43583F583E070030201D690004D89
:1000E300E004F080D2EF64084E7041900048E06471
:1000F300077003020047E004F0E490004DF0900025
:100103004DE0FF900048E075F009A42400F582E477
:100113003400F583E5822FF582E43583F583E070BF
:10012300030201D690004DE004F080D290004CE031
:10013300640C7063900048E064077003020047E0BA
:1001430004F0A37407F0900048E0FFA3E0FED39F00
:10015300402CEE75F009A4FFAEF024F7F974FF3ECE
:10016300FA7B01C00174002FF974003EA801FC7DE5
:1001730001D001120516900049E014F080C89000E8
:1001830048E075F009A42400F582E43400F583E423
:10019300F090004DF0803C90004CE064107029A377
:1001A300E0700302004714FFF0900048E075F00987
:1001B300A42400F582E43400F583E5822FF582E47C
:1001C3003583F583E4F0800B90004DE06408700301
:1001D30002004790004CE0FF24FE601E14601B24C5
:1001E300FE602014601D14601A24FE24FD501E249A
:1001F300FE6066240D6003020047EF2430FF900089
:100203004D801290004CE0242FFFA3800890004CF7
:10021300E0242EFFA3E0FE900048E0FD75F009A462
:100223002400F582E43400F583E5822EF582E4357B
:1002330083F583EFF090004DE004FFF0ED75F009D6
:10024300A42400F582E43400F583E5822FF582E4EB
:100253003583F583E4F002004790004DE0FF900002
:1002630048E0FE75F009A42400F582E43400F58328
:10027300E5822FF582E43583F5837430F090004DE9
:10028300E004FFF0EE75F009A42400F582E43400E5
:10029300F583E5822FF582E43583F583E4F00200EC
:0102A3004713
:0C064F00EF4E6007EF1F70F81E80F522D0
:10063C0010183F065B4F666D7D077F6F777C395EC8
:02064C007971C2
:07065B0075A01CE4F58022EC
:0E02A40090004EEBF0A3EAF0A3E9F0A3EDF01A
:1002B200FF7E00C3E49F7480F89840030203BBEF03
:1002C20094087480948040030203BBE4900053F0CE
:1002D200900053E0C3940874809480400302041C8D
:1002E20012065BE0FF900051E0FEC39F14FDEFC3D6
:1002F2009E501990004EE0FBA3E0FAA3E0F99000B3
:1003020053E0F58275830012041D8001E4900052CF
:10031200F0900052E0FF3395E0FED374309FEE641C
:1003220080F87480985016EF9439EE64809480506F
:100332000CED25E025E0F5A0E024E880589000527D
:10034200E0FF3395E0FED374619FEE6480F8748021
:10035200985016EF9466EE64809480500CED25E080
:1003620025E0F5A0E024C1802C900052E0FF3395F7
:10037200E0FED374419FEE6480F8748098501CEFC5
:100382009446EE648094805012AF05EF25E025E09C
:10039200F5A0E024E1F8E6F580800E900053E02518
:1003A200E025E0F4F5A0E4F5807FFF7E0012064F21
:1003B200900053E004F00202D2900051E0702D90C0
:1003C2000053F0900053E0C3940874809480504A24
:1003D20012065BE025E025E0F4F5A0E4F5807FFF5E
:1003E200FE12064F900053E004F080D7E4900053D1
:1003F200F0900051E0FF900053E0C39F501C1206A2
:100402005BE025E025E0F5A08520807FFF7E0012DD
:0A041200064F900053E004F080D77D
:01041C0022BD
:1005BF00EF14600F146011146013240370147590FE
:1005CF00F780127590FB800D7590FD80087590FE79
:1005DF0080037F00227F037E0012064FE590F430E8
:1005EF00E709E590F420E7FA7F0122E590F430E681
:1005FF0009E590F420E6FA7F0222E590F430E50950
:10060F00E590F420E5FA7F0322E590F430E409E564
:0B061F0090F420E4FA7F04227F002208
:04066200E4F5902209
:10053F00020003E493A3F8E493A34003F68001F2CF
:10054F0008DFF48029E493A3F85407240CC8C333BD
:10055F00C4540F4420C8834004F456800146F6DF8C
:10056F00E4800B010204081020408090062AE47EEC
:10057F00019360BCA3FF543F30E509541FFEE49381
:10058F00A360010ECF54C025E060A840B8E493A348
:10059F00FAE493A3F8E493A3C8C582C8CAC583CA73
:1005AF00F0A3C8C582C8CAC583CADFE9DEE780BE2B
:01064E0000AB
:10041D00BB010CE58229F582E5833AF583E0225094
:10042D0006E92582F8E622BBFE06E92582F8E222DE
:0D043D00E58229F582E5833AF583E49322F8
:10044A00E709F60870FA8046E709F20870FA803E72
:10045A0088828C83E709F0A370FA807EE309F608A4
:10046A0070FA8076E309F20870FA806E88828C83CB
:10047A00E309F0A370FA806289828A83E0A3F6080E
:10048A0070FA805689828A83E0A3F20870FA804A59
:10049A0080D280FA80C680D4806580F28031801054
:1004AA0080A680EA809A80A880DA80E280CA8031B9
:1004BA0089828A83ECFAE493A3C8C582C8CCC5832F
:1004CA00CCF0A3C8C582C8CCC583CC70E9800D899D
:1004DA00828A83E493A3F60870F9ECFAA9F0EDFB9B
:1004EA002289828A83ECFAE0A3C8C582C8CCC58374
:1004FA00CCF0A3C8C582C8CCC583CC70EA80DD899C
:10050A00828A83E493A3F20870F980CE88F0ED24FE
:10051A0002B4040050C4F582EB2402B4040050BAB9
:09052A00232345822390049A73F7
:00000001FF
