:0300000002017981
:0C017900787FE4F6D8FD7581170201467E
:1001460012012F12016A7F107E2712015A1200AC8B
:04015600E4FEFF22A2
:1000AC00E4F517C3E51794FF748094805010AF17D4
:1000BC001201857F027E00120115051780E5751768
:1000CC00FFD3E51794007480948040D4AF171201CD
:0C00DC00857F027E00120115151780E5DB
:10011500EF4E6015E4FDFC0DBD00010CED647B4C5C
:0901250070F5EF1F70EA1E80E77F
:01012E0022AE
:10012F00758901758CFF758AFFD2AFD2A9D28CE485
:07013F00F580F50FF5102219
:10015A00C2AF8E0D8F0EE50DF511E4F510D2AF2268
:0A018500C2AF8F0FE4F510D2AF22D5
:03000B000200E808
:1000E800C0E0C0D0C374139511E49400F58CC374B8
:1000F800139511F58AE510B50F0575A0008007E581
:0D01080010700375A0FF0510D0D0D0E032BC
:0F016A00D288D2A8D2B2D28AD2AAD2B3D2AF222E
:03000300020016E2
:10001600C0E0C0F0C083C082C0D075D000C000C0B0
:1000260001C002C003C004C005C006C007C2AF7F3E
:10003600017E0012011520B2071514751500D2AF06
:10004600D007D006D005D004D003D002D001D0000E
:0B005600D0D0D082D083D0F0D0E032B8
:0300130002006187
:10006100C0E0C0F0C083C082C0D075D000C000C065
:1000710001C002C003C004C005C006C007C2AF7FF3
:10008100017E0012011520B3070514751500D2AFCA
:10009100D007D006D005D004D003D002D001D000C3
:0B00A100D0D0D082D083D0F0D0E0326D
:00000001FF
