:03000000020003F8
:0C000300787FE4F6D8FD75810F02004AFA
:0A00C8000808FEFDFBF7EFDFBF7F25
:0C00BC00EF4E6007EF1F70F81E80F52269
:10008F007580FEE4FDEDC39408748094805019E5EB
:10009F0080F425E0F4F58074082DF8E6F5A07F884C
:0D00AF007E131200BC0D80DD7580FE80D632
:10000F0002008FE493A3F8E493A34003F68001F278
:10001F0008DFF48029E493A3F85407240CC8C333F2
:10002F00C4540F4420C8834004F456800146F6DFC1
:10003F00E4800B01020408102040809000C8E47E89
:10004F00019360BCA3FF543F30E509541FFEE493B6
:10005F00A360010ECF54C025E060A840B8E493A37D
:10006F00FAE493A3F8E493A3C8C582C8CAC583CAA8
:10007F00F0A3C8C582C8CAC583CADFE9DEE780BE60
:0100D200002D
:00000001FF
