:0300000002033EBA
:0C033E00787FE4F6D8FD75810702017B92
:1000030000003C42423C00000000027E220000004F
:100013000000324A4632000000002C524224000005
:1000230000007E080878000000004C525274000063
:1000330000000C52523C0000000060504E40000093
:1000430000002C52522C000000003C4A4A300000B1
:100053003C42423C00027E2200027E22027E2200BB
:10006300324A463200027E222C52422400027E2271
:100073007E08087800027E224C52527400027E22CF
:100083000C52523C00027E2200103070000000002F
:100093000000000070301000000000000E0C08008B
:1000A30000080C0E0000000000003E48483E00001F
:1000B30000002C52527E000000004242423C0000ED
:1000C30000003C42427E000000004252527E00008B
:1000D30000004050507E000000002C4A423C0000CB
:1000E30000007E10107E00000000427E42000000EF
:1000F30000007C420204000000004628107E00003D
:1001030000000202027E0000000000000000000068
:1001130000000000000000000000000000000000DC
:1001230000000000000000000000000000000000CC
:1001330000000000000000000000000000000000BC
:1001430000000000000000000000000000000000AC
:10015300000000000000000000000000000000009C
:10016300000000000000000000000000000000008C
:08017300000000000000000084
:10017B00E4900000F0A3F0A3F012035612032A90B0
:10018B000002E0703D900001F0900001E0FFC3948D
:10019B00047480948050E8A3E070E4EF75F008A439
:1001AB00248BF9740035F0FA7BFF1201F5900001F6
:1001BB00E0FF12025F900002EFF0900001E004F00C
:1001CB0080C7900001E01425E025E0FFA3E02F900D
:1001DB000000F0900000E075F008A42403F974000F
:0A01EB0035F0FA7BFF1201F580E900
:0C034A00EF4E6007EF1F70F81E80F522D8
:10025F00EF14600F14601114601324037014759061
:10026F007F80127590BF800D7590DF80087590EFBD
:10027F0080037F00227F037E0012034AE590F43053
:10028F00E3037F0122E590F430E2037F0222E59041
:10029F00F430E1037F0322E590F430E0037F042282
:0302AF007F0022AB
:04035600E4F5902218
:0502B200900007EFF0D1
:1002B700E4A3F0900008E0FFC39408748094805092
:1002C700347E007480A807088006CEA2E713CE13F9
:1002D700D8F8FF900007E0FDEF5D6004D2B480021C
:1002E700C2B4C2B67F037E0012034AD2B69000089A
:0502F700E004F080BEF0
:0102FC0022DF
:0B01F500900003EBF0A3EAF0A3E9F098
:10020000E4A3F0900006E0C3940874809480504EFC
:10021000E4FF1202B2C2B57F037E0012034AD2B5D8
:10022000900003E0FBA3E0FAA3E0F9A3E0F58275F8
:1002300083001202FDFF1202B2900006E0FFF87484
:1002400001088002C333D8FCF4F580C2B57F037E79
:0E0250000012034AD2B5900006E004F080A52B
:01025E00227D
:10032A007580FFE4FF1202B2C2B57F037E0012039A
:04033A004AD2B522CC
:1002FD00BB010CE58229F582E5833AF583E02250B6
:10030D0006E92582F8E622BBFE06E92582F8E222FF
:0D031D00E58229F582E5833AF583E4932219
:00000001FF
