:03000000020006F5
:0C000600787FE4F6D8FD75810902009AAD
:09009A00120000C2A0C2A180FE08
:030013000200A345
:0300A300B2A132D5
:0300030002009068
:0A009000C0D0A2A0B392A1D0D032DC
:06005C008FA07F507EC35F
:0C006200EF4E6007EF1F70F81E80F522C3
:10006E00EFF4FFAE05A806088002C333D8FCF4FFF8
:01007E00225F
:10007F00EFF4FFAE05A806088002C313D8FCF4FF07
:01008F00224E
:10001600E4FCECC3940774809480500D7D01AFA07E
:1000260012006E12005C0C80E9E4FCECC3940774C9
:10003600809480500D7D01AFA012007F12005C0CF1
:0200460080E94F
:010048002295
:10004900D288D28AD2A8D2AAD2AFE4F508F5097526
:03005900A0FF22E3
:00000001FF
