:030000000200CE2D
:0C00CE00787FE4F6D8FD75810D02011565
:1000260000003C42423C00000000027E220000002C
:100036000000324A4632000000002C5242240000E2
:1000460000007E080878000000004C525274000040
:1000560000000C52523C0000000060504E40000070
:1000660000002C52522C000000003C4A4A3000008E
:100076003C42423C00027E2200027E22027E220098
:10008600324A463200027E222C52422400027E224E
:100096007E08087800027E224C52527400027E22AC
:1000A6000C52523C00027E220000000010204080CC
:1000B600804020100000000001020408000000003B
:0800C600000000000804020123
:03001D00010D00D2
:10015A0012026512028DE50D702BF508C3E50894AD
:10016A00047480948050EFE50875F008A424AEF971
:10017A00740035F0FA7BFF1201A47F147E0012008E
:10018A0003050880D7E50D75F008A42426F9740044
:0A019A0035F0FA7BFF1201A480EBA0
:0B024E00E4FF1201EAC2B57F037E004E
:0C025900EF4E6007EF1F70F81E80F522CA
:10000300EF4E6015E4FDFC0DBD00010CED647B4C6F
:0900130070F5EF1F70EA1E80E792
:01001C0022C1
:0201EA00AD075F
:1001EC00E4FCECC394087480948050287E007480E6
:1001FC00A804088006CEA2E713CE13D8F8FFEDFBB7
:10020C00EF5B6004D2B48002C2B4C2B6120255D203
:04021C00B60C80CECE
:0102200022BB
:0601A4008B098A0A890B99
:1001AA00E4F50CC3E50C9408748094805031120273
:1001BA004ED2B5AB09AA0AA90B850C827583001227
:1001CA000221FF1201EAAF0CA8077401088002C3DA
:0F01DA0033D8FCF4F580120253D2B5050C80C463
:0101E90022F3
:09028D007580FF12024ED2B52269
:10026500759850438920758780758DF3758BF3D20A
:06027500ACD2AFD28E22D4
:0300230002027B5B
:10027B00C0E030980A85990DE599F4F5A0C298D0A5
:02028B00E0325F
:1000DA0002015AE493A3F8E493A34003F68001F2E1
:1000EA0008DFF48029E493A3F85407240CC8C33327
:1000FA00C4540F4420C8834004F456800146F6DFF6
:10010A00E4800B010204081020408090001DE47E68
:10011A00019360BCA3FF543F30E509541FFEE493EA
:10012A00A360010ECF54C025E060A840B8E493A3B1
:10013A00FAE493A3F8E493A3C8C582C8CAC583CADC
:10014A00F0A3C8C582C8CAC583CADFE9DEE780BE94
:0100200000DF
:10022100BB010CE58229F582E5833AF583E0225092
:1002310006E92582F8E622BBFE06E92582F8E222DC
:0D024100E58229F582E5833AF583E49322F6
:00000001FF
