:03000000020324D4
:0C032400787FE4F6D8FD75817102036B50
:1003B00030313233343536373839616263646566DB
:1003C000000000000000000000000000000000002D
:1003D000000000000000000000000000000000001D
:1003E000000000000000000000000000000000000D
:1003F00010523F065B4F666D7D077F6F777C395EDD
:02040000797110
:1002710078087C007D007BFF7A0379B07E007F40A7
:100281001200D3754B1F120421120421E4F54C74A2
:10029100FFFFFE120415754800754900754A08AB49
:1002A10048AA49A94A9000071201126048C3E54CC7
:1002B100940874809480501A754B0FE54B600FAB16
:1002C10048AA49A94AAD4C12013F154B80ED054C96
:1002D10080DB754B0FE54B600FAB48AA49A94A7DFE
:1002E1000812013F154B80ED7401254AF54AE435AA
:1002F10049F54980AAAB48AA49A94A1200F960897F
:10030100754B0FE54B600FAB48AA49A94A7D08120E
:10031100013F154B80ED7401254AF54AE43549F555
:030321004980D23E
:1004020010623F065B4F666D7D077F6F777C395EBA
:020412007971FE
:0C041500EF4E6007EF1F70F81E80F5220C
:0704210063A01CE4F580223A
:06013F008B4D8A4E894F32
:10014500EDFF7E00C3E49F7480F898400302022D02
:10015500EF940874809480400302022DE4FCECC304
:100165009408748094804003020270120421C3ED48
:100175009C14F551ECC39D5012AB4DAA4EA94F8C62
:1001850082758300120112F5508003E4F550AF50DB
:10019500EF3395E0FED374309FEE6480F874809859
:1001A5005016EF9439EE64809480500CE55125E0AB
:1001B50025E0F5A074328052AF50EF3395E0FED3C1
:1001C50074619FEE6480F87480985016EF9466EE23
:1001D50064809480500CE55125E025E0F5A0740B72
:1001E5008028AF50EF3395E0FED374419FEE6480D5
:1001F500F8748098501CEF9446EE648094805012F9
:10020500E55125E025E0F5A0742B2550F8E6F580AD
:10021500800BEC25E025E0F4F5A0E4F5807FFF7E7A
:10022500001204150C020163ED7022FCECC3940866
:10023500748094805035120421EC25E025E0F4F516
:10024500A0E4F5807FFFFE1204150C80DFE4FCECD2
:10025500C39D5017120421EC25E025E0F5A0856A21
:0B026500807FFF7E001204150C80E477
:01027000226B
:10033000020271E493A3F8E493A34003F68001F270
:1003400008DFF48029E493A3F85407240CC8C333CE
:10035000C4540F4420C8834004F456800146F6DF9D
:10036000E4800B01020408102040809003F0E47E3A
:10037000019360BCA3FF543F30E509541FFEE49392
:10038000A360010ECF54C025E060A840B8E493A359
:10039000FAE493A3F8E493A3C8C582C8CAC583CA84
:1003A000F0A3C8C582C8CAC583CADFE9DEE780BE3C
:0104140000E7
:10000300E709F608DFFA8046E709F208DFFA803EDF
:1000130088828C83E709F0A3DFFA8032E309F608CC
:10002300DFFA8078E309F208DFFA807088828C8334
:10003300E309F0A3DFFA806489828A83E0A3F608E8
:10004300DFFA805889828A83E0A3F208DFFA804CC2
:1000530080D280FA80C680D4806980F28033801099
:1000630080A680EA809A80A880DA80E280CA803302
:1000730089828A83ECFAE493A3C8C582C8CCC5837A
:10008300CCF0A3C8C582C8CCC583CCDFE9DEE7804A
:100093000D89828A83E493A3F608DFF9ECFAA9F0C9
:1000A300EDFB2289828A83ECFAE0A3C8C582C8CC1F
:1000B300C583CCF0A3C8C582C8CCC583CCDFEADE38
:1000C300E880DB89828A83E493A3F208DFF980CC9A
:1000D30088F0EF60010E4E60C388F0ED2402B40493
:1000E3000050B9F582EB2402B4040050AF2323453A
:0600F3008223900053730C
:1000F900BB010689828A83E0225002E722BBFE0205
:09010900E32289828A83E4932237
:10011200BB010CE58229F582E5833AF583E02250A2
:1001220006E92582F8E622BBFE06E92582F8E222EC
:0D013200E58229F582E5833AF583E4932206
:00000001FF
