:030000000201A05A
:0C01A000787FE4F6D8FD7581360201E797
:1003020033373035303231393938303430363132B2
:030312003138007F
:1002DD0010083F065B4F666D7D077F6F777C395E3B
:0202ED00797125
:100287007528FF752903752A02752E2F120321126F
:100297000321752F0174FFFFFE12031585282B8597
:1002A700292C852A2DAB2BAA2CA92D9000071200EB
:1002B7000360DC752E2FE52E600FAB2BAA2CA92D22
:1002C7007D081200FE152E80ED7401252DF52DE415
:0602D700352CF52C80CF50
:1002EF0010183F065B4F666D7D077F6F777C395E19
:0202FF00797113
:0C031500EF4E6007EF1F70F81E80F5220D
:0703210063A01CE4F580223B
:0200FE008D3043
:10010000D3E5309408748094805075E4FCECC3957A
:1001100030400302019F120321ECFFC374079FFFCD
:10012000E494008F82F583120003FFF5823395E09B
:10013000F583D374309582E5836480F87480985099
:100140001CE5829439E583648094805010EC25E0AE
:1001500025E0F5A074E82FF8E6F5808019EF700C23
:10016000EC25E025E0F5A0E4F580800AEC25E0250B
:10017000E0F5A08520807FFF7E001203150C808DA6
:10018000E4FCECC395305017120321EC25E025E088
:0F019000F5A08520807FFF7E001203150C80E311
:01019F00223D
:08022C008F348E338D328C31CA
:10023400E4F536AF34AE33AD32AC31EC4D4E4F60F5
:1002440041E47B0AFAF9F812006CAF038F35E53606
:1002540025E025E0F5A074182535F8E6F580AF34DF
:10026400AE33AD32AC31E47B0AFAF9F812006C8F8C
:10027400348E338D328C317FA07E00120315053607
:0202840080B147
:010286002255
:1001AC00020287E493A3F8E493A34003F68001F2E0
:1001BC0008DFF48029E493A3F85407240CC8C33354
:1001CC00C4540F4420C8834004F456800146F6DF23
:1001DC00E4800B01020408102040809002DDE47ED4
:1001EC00019360BCA3FF543F30E509541FFEE49318
:1001FC00A360010ECF54C025E060A840B8E493A3DF
:10020C00FAE493A3F8E493A3C8C582C8CAC583CA09
:10021C00F0A3C8C582C8CAC583CADFE9DEE780BEC1
:0103010000FB
:10000300BB010CE58229F582E5833AF583E02250B2
:1000130006E92582F8E622BBFE06E92582F8E222FC
:0D002300E58229F582E5833AF583E4932216
:1000300075F008758200EF2FFFEE33FECD33CDCC87
:1000400033CCC58233C5829BED9AEC99E58298400A
:100050000CF582EE9BFEED9AFDEC99FC0FD5F0D6E7
:10006000E4CEFBE4CDFAE4CCF9A88222B800C1B911
:100070000059BA002DEC8BF084CFCECDFCE5F0CB4F
:10008000F97818EF2FFFEE33FEED33FDEC33FCEB88
:1000900033FB10D703994004EB99FB0FD8E5E4F943
:1000A000FA227818EF2FFFEE33FEED33FDEC33FC30
:1000B000C933C910D7059BE99A4007EC9BFCE99A24
:1000C000F90FD8E0E4C9FAE4CCFB2275F010EF2F69
:1000D000FFEE33FEED33FDCC33CCC833C810D70769
:1000E0009BEC9AE899400AED9BFDEC9AFCE899F8A4
:0E00F0000FD5F0DAE4CDFBE4CCFAE4C8F92237
:00000001FF
