:030000000203CB2D
:0C03CB00787FE4F6D8FD7581270204124B
:100457003031323334353637383961626364656633
:100467000000000000000000000000000000000085
:100477000000000000000000000000000000000075
:100487000000000000000000000000000000000065
:1004970010083F065B4F666D7D077F6F777C395E7F
:0204A700797169
:1002CE0078007C007D017BFF7A0479577E007F40A9
:1002DE0012024C900043741FF0C2901204C8120414
:1002EE00C8E4900044F074FFFFFE1204BC9000407E
:1002FE007401F0A37400F0A37400F0900040E0FBD2
:10030E00A3E0FAA3E0F990000712028B606C900054
:10031E0044E0C3940874809480502F900043740F6F
:10032E00F0900043E0601B900040E0FBA3E0FAA3D6
:10033E00E0F9900044E0FD120003900043E014F059
:10034E0080DF900044E004F080C4900043740FF00E
:10035E00900043E06018900040E0FBA3E0FAA3E0B9
:10036E00F97D08120003900043E014F080E2900043
:10037E0041E475F0011202B88081900040E0FBA3C9
:10038E00E0FAA3E0F912027270030202EC9000434D
:10039E00740FF0900043E06018900040E0FBA3E083
:1003AE00FAA3E0F97D08120003900043E014F080F8
:0D03BE00E2900041E475F0011202B880BD2C
:0C04BC00EF4E6007EF1F70F81E80F52265
:1004A90010183F065B4F666D7D077F6F777C395E5D
:0204B900797157
:0704C80075A01CE4F5802281
:0E000300900045EBF0A3EAF0A3E9F0A3EDF0C6
:10001100FF7E00C3E49F7480F898400302011AEF49
:10002100940874809480400302011AE490004AF01D
:1000310090004AE0C3940874809480400302017BDD
:100041001204C8E0FF900048E0FEC39F14FDEFC317
:100051009E5019900045E0FBA3E0FAA3E0F990005F
:100061004AE0F58275830012028B8001E490004919
:10007100F0900049E0FF3395E0FED374309FEE64C9
:1000810080F87480985016EF9439EE648094805013
:100091000CED25E025E0F5A0E024E880589000492A
:1000A100E0FF3395E0FED374619FEE6480F87480C5
:1000B100985016EF9466EE64809480500CED25E024
:1000C10025E0F5A0E024C1802C900049E0FF3395A4
:1000D100E0FED374419FEE6480F8748098501CEF69
:1000E1009446EE648094805012AF05EF25E025E040
:1000F100F5A0E024E1F8E6F580800E90004AE025C5
:10010100E025E0F4F5A0E4F5807FFF7E001204BC59
:1001110090004AE004F0020031900048E0702D9018
:10012100004AF090004AE0C3940874809480504AD9
:100131001204C8E025E025E0F4F5A0E4F5807FFF96
:10014100FE1204BC90004AE004F080D7E490004A1B
:10015100F0900048E0FF90004AE0C39F501C120459
:10016100C8E025E025E0F5A08520807FFF7E001214
:0A01710004BC90004AE004F080D7BF
:01017B002261
:1003D7000202CEE493A3F8E493A34003F68001F26C
:1003E70008DFF48029E493A3F85407240CC8C33327
:1003F700C4540F4420C8834004F456800146F6DFF6
:10040700E4800B0102040810204080900497E47EEA
:10041700019360BCA3FF543F30E509541FFEE493EA
:10042700A360010ECF54C025E060A840B8E493A3B1
:10043700FAE493A3F8E493A3C8C582C8CAC583CADC
:10044700F0A3C8C582C8CAC583CADFE9DEE780BE94
:0104BB000040
:10017C00E709F608DFFA8046E709F208DFFA803E65
:10018C0088828C83E709F0A3DFFA8032E309F60852
:10019C00DFFA8078E309F208DFFA807088828C83BA
:1001AC00E309F0A3DFFA806489828A83E0A3F6086E
:1001BC00DFFA805889828A83E0A3F208DFFA804C48
:1001CC0080D280FA80C680D4806980F2803380101F
:1001DC0080A680EA809A80A880DA80E280CA803388
:1001EC0089828A83ECFAE493A3C8C582C8CCC58300
:1001FC00CCF0A3C8C582C8CCC583CCDFE9DEE780D0
:10020C000D89828A83E493A3F608DFF9ECFAA9F04E
:10021C00EDFB2289828A83ECFAE0A3C8C582C8CCA4
:10022C00C583CCF0A3C8C582C8CCC583CCDFEADEBD
:10023C00E880DB89828A83E493A3F208DFF980CC1F
:10024C0088F0EF60010E4E60C388F0ED2402B40418
:10025C000050B9F582EB2402B4040050AF232345BF
:06026C0082239001CC7317
:10027200BB010689828A83E0225002E722BBFE028A
:09028200E32289828A83E49322BD
:10028B00BB010CE58229F582E5833AF583E0225028
:10029B0006E92582F8E622BBFE06E92582F8E22272
:0D02AB00E58229F582E5833AF583E493228C
:1002B800C5F0F8A3E028F0C5F0F8E58215827002D1
:0602C8001583E038F0226E
:00000001FF
