:0300000002000EED
:0C000E00787FE4F6D8FD758109020055EA
:0B00D1001200B5E4FFFE1200C580F82D
:0C00C500EF4E6007EF1F70F81E80F52260
:0400030002080000EF
:1000B500758901758CFF758AFFD2AFD2A9D28C22C2
:03000B0002009A56
:10009A00C0E0758CFF758AFFB2A07508007509006B
:0B00AA000509E50970020508D0E032EE
:10001A000200D1E493A3F8E493A34003F68001F22B
:10002A0008DFF48029E493A3F85407240CC8C333E7
:10003A00C4540F4420C8834004F456800146F6DFB6
:10004A00E4800B0102040810204080900003E47E43
:10005A00019360BCA3FF543F30E509541FFEE493AB
:10006A00A360010ECF54C025E060A840B8E493A372
:10007A00FAE493A3F8E493A3C8C582C8CAC583CA9D
:10008A00F0A3C8C582C8CAC583CADFE9DEE780BE55
:0100070000F8
:00000001FF
