:03000000020016E5
:0C001600787FE4F6D8FD75812002005DC3
:04019000C100C101E8
:0500060012015A80FE0A
:10017600EF4E6015E4FDFC0DBD00010CED64964CE0
:0901860070F5EF1F70EA1E80E71E
:01018F00224D
:04019400C102C103E0
:10015A00D288D2A8D2B2D28AD2AAD2B3758901756C
:0C016A008CD8758ABDD2A9D28CD2AF22ED
:030003000200A256
:1000A200C0E0C0F0C083C082C0D075D000C000C024
:1000B20001C002C003C004C005C006C0077F017EA4
:1000C2000012017620B202B2A0D007D006D005D02D
:1000D20004D003D002D001D000D0D0D082D083D0BF
:0400E200F0D0E03248
:03000B0002012AC5
:04012A00C0E0C0D0A1
:10012E00758CFC758A1220A018E509B48809E508BB
:10013E00B41304D2A0800A0509E509700A050880E7
:07014E0006750800750900A9
:05015500D0D0D0E03223
:030013000200E602
:1000E600C0E0C0F0C083C082C0D075D000C000C0E0
:1000F60001C002C003C004C005C006C0077F017E60
:100106000012017620B302B2A0D007D006D005D0E7
:1001160004D003D002D001D000D0D0D082D083D07A
:04012600F0D0E03203
:10002200020006E493A3F8E493A34003F68001F2EE
:1000320008DFF48029E493A3F85407240CC8C333DF
:10004200C4540F4420C8834004F456800146F6DFAE
:10005200E4800B0102040810204080900190E47EAD
:10006200019360BCA3FF543F30E509541FFEE493A3
:10007200A360010ECF54C025E060A840B8E493A36A
:10008200FAE493A3F8E493A3C8C582C8CAC583CA95
:10009200F0A3C8C582C8CAC583CADFE9DEE780BE4D
:010198000066
:00000001FF
