:0300000002007289
:0C007200787FE4F6D8FD75810A020003D7
:100003007509C3750A5075A0FEE4F508C3E50894A5
:10001300077480948050147D01AFA01200508FA00C
:10002300AF0AAE0912007E050880E1E4F508C3E5D6
:100033000894077480948050D07D01AFA0120061B2
:0D0043008FA0AF0AAE0912007E050880E113
:0B007E00EF1FAC0670011E4C70F62254
:10005000EFF4FFAE05A806088002C333D8FCF4FF16
:01006000227D
:10006100EFF4FFAE05A806088002C313D8FCF4FF25
:01007100226C
:00000001FF
