:03000000020006F5
:0C000600787FE4F6D8FD75810A02001630
:10013700EFF4FFAE05A806088002C333D8FCF4FF2E
:010147002295
:10014800EFF4FFAE05A806088002C313D8FCF4FF3D
:010158002284
:06012500C2AF7FDC7E0585
:0C012B00EF4E6007EF1F70F81E80F522F9
:10008100E4FCECC3940774809480501DE50864037C
:100091007040E50A603C7D01AFA01201378FA07F5F
:1000A100887E1312012B0C80D9E4FCECC3940774F5
:1000B100809480501DE50864037017E50A60137D84
:1000C10001AFA01201488FA07F887E1312012B0C73
:0200D10080D9D4
:0100D300220A
:10001600D288D2A8D28AD2AAD2AFE4F508F50AF5D8
:100026000975A0FFE50A6049E50824FE600714602B
:100036000B24027016E509F4F5A0801575A0FE7F65
:10004600887E1312012B120081800675A0FF7509A8
:10005600FF20B00D12012720B0CA750801150980CE
:10006600C320B1C012012720B1BA75080205098064
:0B007600B375A0FFE4F509F50880A9B0
:030003000200D424
:1000D400C0E0C0D075D000C006C00712012575A0CD
:1000E400FFE50864037003FF80027F038F08D2AF2B
:0900F400D007D006D0D0D0E032D4
:030013000200FDEB
:1000FD00C0E0C0D075D000C006C00712012575A0A4
:10010D00FFE50A70047F0180027F008F0AD2AFD015
:08011D0007D006D0D0D0E0327B
:00000001FF
