:03000000020421D6
:0C042100787FE4F6D8FD75813102046894
:0300030025640071
:1005810010083F065B4F666D7D077F6F777C395E94
:0E059100797149002A000000000000000000FF
:1004AD001205DD90000574FFF0A37400F0A3740332
:1004BD00F0A37404F0A374D2F07B017A00792A12B0
:1004CD000083E4900000F0A3F0900000E0FEA3E0B4
:1004DD00FFC394FFEE94FF50E990000574FFF0A365
:1004ED007400F0A37403F0A3EEF0A3EFF07B017A98
:1004FD0000792A1200837FF47E011205FD90000120
:0D050D00E004F070C4900000E004F080BC39
:1005FD00EF4E6015E4FDFC0DBD00010CED647B4C70
:09060D0070F5EF1F70EA1E80E792
:0106160022C1
:10059F0010223F065B4F666D7D077F6F777C395E5C
:0605AF00797141003300E8
:1005DD0075A01CE4F580438910758DFF758BFFD2D6
:1005ED00AFD2ABD28E90003474FDF0A37497F0228D
:03001B0002051AC1
:10051A00C0E0C083C082C0D075D000C000C006C091
:01052A0007C9
:10052B00900035E0F58B900034E0F58D75A01C75CF
:10053B008000900033E0FF242AF582E43400F58339
:10054B00E0FE6013C374079F25E025E0F5A074F26D
:10055B002EF8E6F5808007900033E4F080099000D8
:07056B0033E004F05407F037
:0F057200D007D006D000D0D0D082D083D0E032D6
:10042D000204ADE493A3F8E493A34003F68001F234
:10043D0008DFF48029E493A3F85407240CC8C333D0
:10044D00C4540F4420C8834004F456800146F6DF9F
:10045D00E4800B0102040810204080900581E47EA9
:10046D00019360BCA3FF543F30E509541FFEE49394
:10047D00A360010ECF54C025E060A840B8E493A35B
:10048D00FAE493A3F8E493A3C8C582C8CAC583CA86
:10049D00F0A3C8C582C8CAC583CADFE9DEE780BE3E
:0105B5000045
:10001E00E5182405F582E43400F583E005182290F6
:10002E000002300703900005E475F0011203DB02B5
:10003E0003832000E97F2ED2008018EF540F249006
:10004E00D43440D4FF30040BEF24BFB41A00500355
:10005E002461FFE51960021519051CE51C700205E7
:10006E001B30070E900002E475F0011203DBEF0265
:10007E0003C90205B67403D2078003E4C207F5185C
:10008E009000021203F2E4F519F51BF51CE5196058
:10009E00077F2012006180F5751AFFC201C200C2EF
:1000AE0002C203C205C206C20812002DFF700D3037
:1000BE0007057F00120072AF1CAE1B22B4255FC273
:1000CE00D5C20412002DFF24D0B40A00501A75F0C8
:1000DE000A781930D50508B6FF0106C6A426F62003
:1000EE00D5047002D20380D924CFB41A00EF500485
:1000FE00C2E5D204020273D20180C6D20080C0D201
:10010E000280BCD2D580BAD20580B47F20120061A5
:10011E002002077401B5190040F112001EFF1200F3
:10012E006102009BD208D206809512001EFB1200BF
:10013E001EFA12001EF94A4B700679447A037BFFB1
:10014E0020022EE519602A7E008E8275830012032E
:10015E009C60060EEE651A70F0C2D5EBC0E0EAC0E8
:10016E00E0E9C0E0EE1202BAD0E0F9D0E0FAD0E059
:10017E00FB120383FF60AAEBC0E0EAC0E0E9C0E037
:10018E00120061D0E02401F9D0E03400FAD0E0FB97
:10019E00E51A0460DCD51AD980877BFF7A0279B61E
:1001AE00D202809C791080027908C206C2088008AB
:1001BE00D2D5790A8004790AC2D5E51A047002F5FF
:1001CE001AE4FAFDFEFF12001EFC7B08200113123A
:1001DE00001EFD7B1030000A12001EFE12001EFFD4
:1001EE007B20EC3382D592D55013C3E43000069FAA
:1001FE00FFE49EFEE42001039DFDE49CFCE4CBF8AD
:10020E00C201EC700CCFCECDCCE824F8F870F380A0
:10021E0017C3EF33FFEE33FEED33FDEC33FCEB3360
:10022E00FB994002FB0FD8E9EB300105F8D0E0C492
:10023E0048B201C0E00AEC4D4E4F78207B0070C2F0
:10024E00EAB51A0040BCC0E01202BCD0F0D0E020EB
:10025E000104C4C0E0C4B201C0F012004AD0F0D50F
:10026E00F0EB02009B1203FB01385301B258010957
:10027E004C01054201B64F01BE4401BE49011E4369
:08028E0001C45501A84601A8B6
:100296004501A847036450010D2D01112E01342B91
:1002A600011523013220034D2A00CD480000012C00
:1002B6003F3F3F00790AA2D5200314300509B91043
:1002C600020404B9080104A2D52006025001042044
:1002D60002689202B519005034C0E07F203003193D
:1002E6007F30A20272067205500F120313C202C2B9
:1002F60006C205C2087F30800F300503E9C0E01250
:100306000061300503D0E0F9D0E0B519CC3005170F
:100316007F30B9100C1200617F583004077F788057
:1003260003B908031200613002057F2D0200617FC8
:10033600202008F87F2B2006F322920280CF286E19
:10034600756C6C2900D20112001E3001F8C20178CA
:100356001930D50108F60200CD2D50434958120038
:100366001E2403B405004001E490035F931200527B
:0D037600743A120052D2037519040201B24C
:10038300BB010689828A83E0225002E722BBFE0278
:09039300E32289828A83E49322AB
:10039C00BB010CE58229F582E5833AF583E0225016
:1003AC0006E92582F8E622BBFE06E92582F8E22260
:0D03BC00E58229F582E5833AF583E493227A
:1003C900BB010689828A83F0225002F722BBFE0113
:0203D900F3220D
:1003DB00F8E0FBA3A3E0F925F0F0E58215827002AB
:0703EB001583E0FA38F0224F
:0903F200EBF0A3EAF0A3E9F0220C
:1003FB00D083D082F8E4937012740193700DA3A391
:10040B0093F8740193F5828883E4737402936860A4
:06041B00EFA3A3A380DFA4
:1005B600EFB40A07740D1205C1740A309811A89990
:1005C600B8130CC2983098FDA899C298B811F630A5
:0705D60099FDC299F599227D
:00000001FF
