:030000000204DC1B
:0C04DC00787FE4F6D8FD7581310205231D
:04000600256C640001
:1006C50010083F065B4F666D7D077F6F777C395E4F
:1006D500797149002C000000000000000000540062
:1006E50035000000000000000000000000000000D0
:0506F500000000000000
:10062A001207381207727B017A0079357D0A1206A1
:10063A0078E4FCFD90000012044490000774FFF077
:10064A00A37400F0A37406F0900000E0FCA3E0FDA0
:10065A00A3E0FEA3E0FF90000A1204447B017A00A3
:0E066A00792C1200837F647E0012075880B83E
:0B067800900004EBF0A3EAF0A3E9F00F
:10068300E4A3F0A3F0FFEFC39D502A900004E0FB26
:10069300A3E0FAA3E0F975F002EFA4F58285F083F5
:1006A30012040CFBAAF0900008E02BF0900007E086
:1006B3003AF00F80D17C00900007E0FEA3E0FF0238
:0206C30003B77B
:10075800EF4E6015E4FDFC0DBD00010CED647B4C13
:0907680070F5EF1F70EA1E80E736
:010771002265
:10077200E490004CF0D288D2A8D2B2438901F58C21
:09078200F58AD2A9D28CD2AF2273
:030003000205CF24
:1005CF00C0E0C0F0C083C082C0D075D000C000C0F2
:0505DF0001C002C00391
:1005E40090004CE075F00A84E5F0F0E075F002A4A8
:1005F4002435F9740035F0FA7B01E58A12038390FF
:100604000001E58C120395758C00758A0090004CEE
:03061400E004F00F
:10061700D003D002D001D000D0D0D082D083D0F088
:03062700D0E032EE
:03000B0002000EE2
:07000E00758C00758A0032B9
:1006FA0010223F065B4F666D7D077F6F777C395E00
:06070A0079714100490075
:1007380075A01CE4F580438910758DFF758BFFD279
:10074800AFD2ABD28E90004A74FDF0A37497F0221A
:03001B0002056873
:10056800C0E0C083C082C0D075D000C000C006C043
:01057800077B
:1005790090004BE0F58B90004AE0F58D75A01C7555
:100589008000900049E0FF242CF582E43400F583D3
:10059900E0FE6013C374079F25E025E0F5A074F21F
:1005A9002EF8E6F5808007900049E4F08009900074
:0705B90049E004F05407F0D3
:0F05C000D007D006D000D0D0D082D083D0E03288
:1004E80002062AE493A3F8E493A34003F68001F2FA
:1004F80008DFF48029E493A3F85407240CC8C33315
:10050800C4540F4420C8834004F456800146F6DFE3
:10051800E4800B01020408102040809006C5E47EA8
:10052800019360BCA3FF543F30E509541FFEE493D8
:10053800A360010ECF54C025E060A840B8E493A39F
:10054800FAE493A3F8E493A3C8C582C8CAC583CACA
:10055800F0A3C8C582C8CAC583CADFE9DEE780BE82
:0107100000E8
:10038300BB010689828A83F0225002F722BBFE0159
:02039300F32253
:10039500F8BB010DE58229F582E5833AF583E8F09E
:1003A500225006E92582C8F622BBFE05E92582C84A
:0203B500F22232
:1003B700BC000BBE0029EF8DF084FFADF022E4CC2A
:1003C700F875F008EF2FFFEE33FEEC33FCEE9DECF3
:1003D700984005FCEE9DFE0FD5F0E9E4CEFD22ED39
:1003E700F8F5F0EE8420D21CFEADF075F008EF2F83
:1003F700FFED33FD4007985006D5F0F222C398FD74
:050407000FD5F0EA2210
:10040C00BB0110E58229F582E5833AF583E0F5F02E
:10041C00A3E0225009E92582F886F008E622BBFE0B
:10042C000AE92582F8E2F5F008E222E5832AF58351
:08043C00E993F5F0A3E9932216
:0C044400ECF0A3EDF0A3EEF0A3EFF0222B
:10001E00E5182407F582E43400F583E005182290F4
:10002E000004300703900007E475F00112049602F5
:10003E0004502000E97F2ED2008018EF540F249038
:10004E00D43440D4FF30040BEF24BFB41A00500355
:10005E002461FFE51960021519051CE51C700205E7
:10006E001B30070E900004E475F001120496EF02A7
:10007E0003830207117403D2078003E4C207F51845
:10008E009000041204ADE4F519F51BF51CE519609A
:10009E00077F2012006180F5751AFFC201C200C2EF
:1000AE0002C203C205C206C20812002DFF700D3037
:1000BE0007057F00120072AF1CAE1B22B4255FC273
:1000CE00D5C20412002DFF24D0B40A00501A75F0C8
:1000DE000A781930D50508B6FF0106C6A426F62003
:1000EE00D5047002D20380D924CFB41A00EF500485
:1000FE00C2E5D204020273D20180C6D20080C0D201
:10010E000280BCD2D580BAD20580B47F20120061A5
:10011E002002077401B5190040F112001EFF1200F3
:10012E006102009BD208D206809512001EFB1200BF
:10013E001EFA12001EF94A4B700679447A037BFFB1
:10014E0020022EE519602A7E008E8275830012042D
:10015E006960060EEE651A70F0C2D5EBC0E0EAC01B
:10016E00E0E9C0E0EE1202BAD0E0F9D0E0FAD0E059
:10017E00FB120450FF60AAEBC0E0EAC0E0E9C0E069
:10018E00120061D0E02401F9D0E03400FAD0E0FB97
:10019E00E51A0460DCD51AD980877BFF7A0279B61E
:1001AE00D202809C791080027908C206C2088008AB
:1001BE00D2D5790A8004790AC2D5E51A047002F5FF
:1001CE001AE4FAFDFEFF12001EFC7B08200113123A
:1001DE00001EFD7B1030000A12001EFE12001EFFD4
:1001EE007B20EC3382D592D55013C3E43000069FAA
:1001FE00FFE49EFEE42001039DFDE49CFCE4CBF8AD
:10020E00C201EC700CCFCECDCCE824F8F870F380A0
:10021E0017C3EF33FFEE33FEED33FDEC33FCEB3360
:10022E00FB994002FB0FD8E9EB300105F8D0E0C492
:10023E0048B201C0E00AEC4D4E4F78207B0070C2F0
:10024E00EAB51A0040BCC0E01202BCD0F0D0E020EB
:10025E000104C4C0E0C4B201C0F012004AD0F0D50F
:10026E00F0EB02009B1204B601385301B25801099B
:10027E004C01054201B64F01BE4401BE49011E4369
:08028E0001C45501A84601A8B6
:100296004501A847036450010D2D01112E01342B91
:1002A600011523013220034D2A00CD480000012C00
:1002B6003F3F3F00790AA2D5200314300509B91043
:1002C600020404B9080104A2D52006025001042044
:1002D60002689202B519005034C0E07F203003193D
:1002E6007F30A20272067205500F120313C202C2B9
:1002F60006C205C2087F30800F300503E9C0E01250
:100306000061300503D0E0F9D0E0B519CC3005170F
:100316007F30B9100C1200617F583004077F788057
:1003260003B908031200613002057F2D0200617FC8
:10033600202008F87F2B2006F322920280CF286E19
:10034600756C6C2900D20112001E3001F8C20178CA
:100356001930D50108F60200CD2D50434958120038
:100366001E2403B405004001E490035F931200527B
:0D037600743A120052D2037519040201B24C
:10045000BB010689828A83E0225002E722BBFE02AA
:09046000E32289828A83E49322DD
:10046900BB010CE58229F582E5833AF583E0225048
:1004790006E92582F8E622BBFE06E92582F8E22292
:0D048900E58229F582E5833AF583E49322AC
:10049600F8E0FBA3A3E0F925F0F0E58215827002EF
:0704A6001583E0FA38F02293
:0904AD00EBF0A3EAF0A3E9F02250
:1004B600D083D082F8E4937012740193700DA3A3D5
:1004C60093F8740193F5828883E4737402936860E9
:0604D600EFA3A3A380DFE9
:10071100EFB40A07740D12071C740A309811A899D6
:10072100B8130CC2983098FDA899C298B811F63048
:0707310099FDC299F5992220
:00000001FF
