:0300000002000EED
:0C000E00787FE4F6D8FD758107020055EC
:100302004800060000000000000000460000000057
:0403120000000000E7
:0100090022D4
:10023A0090000E7403F0120334120364E490000F6A
:10024A00F090000FE0FFC3940674809480501774F6
:10025A00002FF582E43400F583E0FF1201D5900007
:10026A000FE004F080DBE4FFEFC3942F74809480E6
:10027A0050030F80F37B017A00790612010580E6AC
:0C035800EF4E6007EF1F70F81E80F522CA
:05028A00900014EFF0EC
:10028F00E4A3F0900015E0FFC394087480948050AD
:10029F00347E007480A807088006CEA2E713CE1321
:1002AF00D8F8FF900014E0FDEF5D6004D2B4800237
:1002BF00C2B4C2B67F037E00120358D2B6900015A7
:0502CF00E004F080BE18
:0102D4002207
:0B010500900010EBF0A3EAF0A3E9F07B
:10011000E4A3F0900013E0C3940874809480504EE0
:10012000E4FF12028AC2B57F037E00120358D2B5E3
:10013000900010E0FBA3E0FAA3E0F9A3E0F58275DC
:1001400083001202D5FF12028A900013E0FFF874B8
:1001500001088002C333D8FCF4F580C2B57F037E6A
:0E01600000120358D2B5900013E004F080A501
:01016E00226E
:100334007580FFE4FF12028AC2B57F037E001203B8
:0403440058D2B522B4
:10009A00EF14600F14601114601324037014759028
:1000AA00F780127590FB800D7590FD80087590FEA3
:1000BA0080037F00227F037E00120358E590F4300C
:1000CA00E709E590F420E7FA7F0122E590F430E6AB
:1000DA0009E590F420E6FA7F0222E590F430E5097A
:1000EA00E590F420E5FA7F0322E590F430E409E58F
:0B00FA0090F420E4FA7F04227F002233
:04036400E4F590220A
:1001D500EF543FFF131313541F900010F0EF540713
:1001E500FD2406F582E43400F583E0FB7A009000F7
:1001F50010E0FF7E007401A807088005C333CE33E5
:10020500CED8F9FFEE5AFEEF5B4E6002C3227406AC
:100215002DF582E43400F583C083C082E0FF9000B1
:1002250010E0FEF87401088002C333D8FC4FD08279
:04023500D083F0D3AF
:0102390022A2
:10016F00EF543FFF131313541F900016F0EF540773
:10017F00FD2406F582E43400F583E0FB7A0090005D
:10018F0016E0FF7E007401A807088005C333CE3345
:10019F00CED8F9FFEE5AFEEF5B4E7002C322740603
:1001AF002DF582E43400F583C083C082E0FF900018
:1001BF0016E0FEF87401088002C333D8FCF45FD058
:0501CF0082D083F0D393
:0101D4002208
:06000300900017EFF0224F
:04031600410018008A
:10034800758901758CEC758A81D2AFD2A9D28C22BD
:03000B0002031BD2
:10031B00C0E0C083C082758CEC758A81900018E0B8
:09032B0004F0D082D083D0E0324E
:10001A0002023AE493A3F8E493A34003F68001F2C0
:10002A0008DFF48029E493A3F85407240CC8C333E7
:10003A00C4540F4420C8834004F456800146F6DFB6
:10004A00E4800B0102040810204080900302E47E41
:10005A00019360BCA3FF543F30E509541FFEE493AB
:10006A00A360010ECF54C025E060A840B8E493A372
:10007A00FAE493A3F8E493A3C8C582C8CAC583CA9D
:10008A00F0A3C8C582C8CAC583CADFE9DEE780BE55
:01031A0000E2
:1002D500BB010CE58229F582E5833AF583E02250DE
:1002E50006E92582F8E622BBFE06E92582F8E22228
:0D02F500E58229F582E5833AF583E4932242
:00000001FF
