:03000000020026D5
:0C002600787FE4F6D8FD75812002006DA3
:10019F00759850438920758780758DF3758BF3D2D1
:0601AF00ACD2AFD28E229B
:080016008F993099FDC2992277
:030023000201B522
:1001B500C0E030980A85990FE599F4F5A0C298D06A
:0201C500E03226
:05000600010801C1002A
:1001670075A0FE12019F1201C77580FF7FFA7E00FE
:0E017700120185E4F5807FFAFE12018580EB0F
:10018500EF4E6015E4FDFC0DBD00010CED647B4CEC
:0901950070F5EF1F70EA1E80E70F
:01019E00223E
:05000B00010B01C10121
:0F01C700D288D2A8D2B2D28AD2AAD2B3D2AF22D1
:0300030002010EE9
:10010E00C0E0C0F0C083C082C0D075D000C000C0B7
:10011E0001C002C003C004C005C006C0077F017E37
:10012E000012018520B217200114E50B64807004C3
:10013E007F018005E50B25E0FF8F0B120016D0071F
:10014E00D006D005D004D003D002D001D000D0D03C
:09015E00D082D083D0F0D0E03251
:030013000200B236
:1000B200C0E0C0F0C083C082C0D075D000C000C014
:1000C20001C002C003C004C005C006C0077F017E94
:1000D2000012018520B31A200117E50B6401700597
:1000E200FE7F808007E50BC313FF7E008F0B12009B
:1000F20016D007D006D005D004D003D002D001D04C
:0C01020000D0D0D082D083D0F0D0E0320A
:10003200020167E493A3F8E493A34003F68001F27C
:1000420008DFF48029E493A3F85407240CC8C333CF
:10005200C4540F4420C8834004F456800146F6DF9E
:10006200E4800B0102040810204080900006E47E28
:10007200019360BCA3FF543F30E509541FFEE49393
:10008200A360010ECF54C025E060A840B8E493A35A
:10009200FAE493A3F8E493A3C8C582C8CAC583CA85
:1000A200F0A3C8C582C8CAC583CADFE9DEE780BE3D
:0100100000EF
:00000001FF
