:0300000002000EED
:0C000E00787FE4F6D8FD758111020055E2
:0400D9000209000A0E
:1000B400758901758CFF758AFFD2AFD2A9D28C22C3
:03000B000200CF21
:0A00CF00758CFF758AFE63A0FF32F6
:0400DD00020E000A05
:0B00C4001200B4750DFF75100F80FED8
:10009A00EF4E6015E4FDFC0DBD00010CED647B4CD8
:0900AA0070F5EF1F70EA1E80E7FB
:0100B300222A
:10001A000200C4E493A3F8E493A34003F68001F238
:10002A0008DFF48029E493A3F85407240CC8C333E7
:10003A00C4540F4420C8834004F456800146F6DFB6
:10004A00E4800B01020408102040809000D9E47E6D
:10005A00019360BCA3FF543F30E509541FFEE493AB
:10006A00A360010ECF54C025E060A840B8E493A372
:10007A00FAE493A3F8E493A3C8C582C8CAC583CA9D
:10008A00F0A3C8C582C8CAC583CADFE9DEE780BE55
:0100E100001E
:00000001FF
