:0300000002009566
:0C009500787FE4F6D8FD75810E02000EA5
:10008500758901758CFF758AFFD2AFD2A9D28C22F2
:10006F008E0A8F0BEEC313FEEF13FFC374089FF5B9
:06007F0009E49EF50822D1
:03000B000200A14F
:0A00A10085098A85088C63A0FF32F0
:10000E00120085750E1CC3E50E9420748094CE509C
:10001E0014AF0E7E0012006F7F0F7E00120055058A
:10002E000E050E80E1750E20D3E50E941C7480949F
:10003E008040D0AF0E7E0012006F7F0F7E00120048
:07004E0055150E150E80E1AF
:10005500EF4E6015E4FDFC0DBD00010CED647B4C1D
:0900650070F5EF1F70EA1E80E740
:01006E00226F
:00000001FF
