:0300000002066F86
:0C066F00787FE4F6D8FD7581200205BDFF
:0D065600E4FBFA79C8784212000312014754
:0C066300EF4E6007EF1F70F81E80F522BC
:1005BD00D295900000120404000000007FA07E86FA
:1005CD007D017C00900000E0F8A3E0F9A3E0FAA320
:1005DD00E0FBC31203BB506CD295900000E0FCA36E
:1005ED00E0FDA3E0FEA3E0FFE41201097B987AC4CD
:1005FD0079037838120003120493120656C29590AF
:10060D000000E0FCA3E0FDA3E0FEA3E0FFE4120187
:10061D00097B987AC4790378381200031204931277
:10062D000656900000E0FCA3E0FDA3E0FEA3E0244D
:10063D0001FFE43EFEE43DFDE43CFC9000001203AE
:09064D00F80205C9B2950205BFCF
:10000300EC4D6011E8497017ED33EC3304600DE4F7
:10001300FCFFFEFD22E933E8330470F80201B3125A
:10002300017E58046009E4CC24815006285009025B
:1000330001BD2840030201BAC0E0EB4A7044B98015
:1000430006D0E0FB0201A9EF4E701CBD8008EBFF58
:10005300EAFEE9FD80EBE98DF0A4FEE5F00200EC99
:10006300E9CDF9EAFEEBFFEF89F0A4FCE5F0CE89D8
:10007300F0A42EFFE435F0CD89F0A42DFEE435F095
:100083008067EF4E7005BD80D780C3EF8BF0A4ACC3
:10009300F0EE8BF0A42CFCE435F0F8EF8AF0A42CFE
:1000A300E5F038FCE433CB8DF0A42CFCE5F03BF811
:1000B300EE8AF0A42CFCE5F038F8E433CF89F0A401
:1000C3002CFCE5F038CF3400CE89F0A42FFFE5F007
:1000D3003EFEE433C98DF0A42EFEE5F039CD8AF05F
:1000E300A42FFFE5F03EFEE43DFD33D0E0FB5007D7
:1000F3000BBB000F0201BDEC2CFCEF33FFEE33FE14
:06010300ED33FD02019541
:1001090075F020800E75F010800575F0087D007E71
:10011900007F003392D530D5031203ADEC33401084
:10012900EF33FFEE33FEED33FDEC33FCD5F0ED227A
:0E013900E5F0247EA2D513CC92E7CDCEFF22B6
:10014700EDD2E7CD33EC3392D524814006E4FFFEB0
:10015700FDFC22FCE4CFCECDCC24E0501174FF800F
:10016700EDC3CC13CCCD13CDCE13CECF13CF0470AC
:07017700F030D5DE0203ADFC
:100435003A70FA83BCAAE9E43E81E0F8BF9DE9E69B
:100445003F80000039283C1ABB9969663DA335E316
:10045500BF255DE73FC90FDB418DDBCCC44936EED7
:1004650045C9913FC5B0F83D3F800000C317F5343D
:10047500452FFA73C60AFDDD12053E04A2E192007E
:100485001420E015900435740412036080301205C1
:100495003E30E102B20020E0EBA883A9829000047F
:1004A5001203F889828883900449740412036085D5
:1004B50082F09000041203DC85F082120003ED4CFB
:1004C5006007300004EC6480FC2212053EC0E0A801
:1004D50083A9829000041203F88982888390046DB1
:1004E50074031203608582F09000041203DC85F02A
:1004F50082120003900004E0CCF0A3E0CDF0A3E06D
:10050500CEF0A3E0CFF090045D7403120360D082B7
:100515008582F09000041203DC85F082E58230E0EC
:10052500071202C3B2008096EFCBFFEECAFEEDC9FB
:10053500FDECC8FC1202C38085ED33EC547FCC334F
:10054500920024605007D0E0D0E00201B37B837AAB
:10055500F97922783E120003EDF933ECF833248162
:100565005011EFFBEEFA120147120109ECB2E7FC5C
:100575001201CFED33EC33602F2403F8C313FCEDE8
:1005850092E7FDE82481E4501FECF8EDF9EEFAEF6F
:10059500FB120147EF04C2E0FCF582120113ECB235
:1005A500E7FC1201CFE58203FAED33EC3360071463
:0805B50013FCED92E7FDEA22C0
:10017E00E9D2E7C933E833F892D5EDD2E7CD33ECC7
:07018E0033FC5002B2D52240
:10019500EC30E7100FBF000C0EBE00080DBD0004CB
:1001A5000BEB6014A2D5EB13FCED92E7FD2274FF77
:1001B500FCFDFEFF22E480F8A2D574FF13FC7D80D0
:0301C500E480EFE4
:1001C8000201B3E86480F8E933E83360110460F0B1
:1001D800ED33EC337009E8FCE9FDEAFEEBFF22049D
:1001E80060DED3EB9FEA9EE99DE8C2E78CF0C2F798
:1001F80095F0400CE8CCF8E9CDF9EACEFAEBCFFB64
:1002080012017E85D0F05804700320D5B3E804703D
:10021800075002B2D50201BD92D5EC0460F7E4CCD8
:10022800C0E0C398F8603B94186008400DD0E0FB2C
:10023800020195E4FBFAC9FC8028E830E406E4C929
:10024800FBE4CAFCE830E305E4C9CACBFCE8540780
:100258006010F8C3E913F9EA13FAEB13FBEC13FC8B
:10026800D8F130F52FC3E49CFCEF9BFFEE9AFEED2E
:1002780099FDD0E0FBEF4E4D4C701222DB030201DA
:10028800BAEC2CFCEF33FFEE33FEED33FDED30E737
:10029800EB020195EF2BFFEE3AFEED39FDD0E0FBC6
:1002A80050130BBB00030201BDED13FDEE13FEEF6F
:0802B80013FFEC13FC02019599
:1002C0000201BDEC5D046005E8590470030201B34E
:1002D00012017E580460F6EC4860F2EC7004FDFEFA
:1002E000FF22C860DB2481C85009C3986002500611
:1002F0000201BA9850CAF582E9294B4A7005AB82CF
:100300000201A975F0007C1A7880C3EF9BEE9AED8C
:1003100099400DC3EF9BFFEE9AFEED99FDE842F088
:10032000DC23ACF0D0E0FFD0E0FED0E0FDAB8220DB
:10033000E7101BEB60BAEC2CFCEF33FFEE33FEED65
:1003400033FD020195E803F830E705C0F075F000D1
:10035000EF2FFFEE33FEED33FD40B830E7C280AA49
:10036000C0E0EFFBEEFAEDF9ECF8120003D0E0F597
:10037000F0EFFBEEFAEDF9ECF81203CCA3A3A3A384
:10038000E8C0E0E9C0E0EAC0E0EBC0E0C0F0120085
:10039000031203E8A3A3A3A31201CFD0F0D0E0FB84
:0D03A000D0E0FAD0E0F9D0E0F8D5F0D4229A
:0E03AD00C3E49FFFE49EFEE49DFDE49CFC2261
:1003BB00EB9FF5F0EA9E42F0E99D42F0E89C45F098
:0103CB00220F
:1003CC00E493FC740193FD740293FE740393FF2277
:0C03DC00E0F8A3E0F9A3E0FAA3E0FB22A4
:1003E800E493F8740193F9740293FA740393FB226B
:0C03F800ECF0A3EDF0A3EEF0A3EFF02278
:10040400A8828583F0D083D08212041B12041B12AD
:10041400041B12041BE473E493A3C583C5F0C583D2
:10042400C8C582C8F0A3C583C5F0C583C8C582C842
:0104340022A5
:00000001FF
